{"abi":[{"type":"constructor","inputs":[{"name":"initialOwner","type":"address","internalType":"address"}],"stateMutability":"nonpayable"},{"type":"function","name":"addCtf","inputs":[{"name":"_title","type":"string","internalType":"string"},{"name":"_description","type":"string","internalType":"string"},{"name":"_verifier","type":"address","internalType":"address"}],"outputs":[],"stateMutability":"nonpayable"},{"type":"function","name":"getCtfProblems","inputs":[{"name":"ctfId","type":"uint256","internalType":"uint256"}],"outputs":[{"name":"","type":"tuple","internalType":"struct CtfProblem","components":[{"name":"id","type":"uint256","internalType":"uint256"},{"name":"title","type":"string","internalType":"string"},{"name":"description","type":"string","internalType":"string"},{"name":"verifier","type":"address","internalType":"address"}]}],"stateMutability":"view"},{"type":"function","name":"getUserCompleted","inputs":[{"name":"ctfId","type":"uint256","internalType":"uint256"},{"name":"user","type":"address","internalType":"address"}],"outputs":[{"name":"","type":"bool","internalType":"bool"}],"stateMutability":"view"},{"type":"function","name":"owner","inputs":[],"outputs":[{"name":"","type":"address","internalType":"address"}],"stateMutability":"view"},{"type":"function","name":"problemId","inputs":[],"outputs":[{"name":"","type":"uint256","internalType":"uint256"}],"stateMutability":"view"},{"type":"function","name":"renounceOwnership","inputs":[],"outputs":[],"stateMutability":"nonpayable"},{"type":"function","name":"transferOwnership","inputs":[{"name":"newOwner","type":"address","internalType":"address"}],"outputs":[],"stateMutability":"nonpayable"},{"type":"function","name":"validateProof","inputs":[{"name":"ctfId","type":"uint256","internalType":"uint256"},{"name":"proof","type":"bytes","internalType":"bytes"},{"name":"publicInputs","type":"bytes32[]","internalType":"bytes32[]"}],"outputs":[{"name":"","type":"bool","internalType":"bool"}],"stateMutability":"nonpayable"},{"type":"event","name":"NewCtf","inputs":[{"name":"ctfId","type":"uint256","indexed":true,"internalType":"uint256"},{"name":"title","type":"string","indexed":false,"internalType":"string"}],"anonymous":false},{"type":"event","name":"OwnershipTransferred","inputs":[{"name":"previousOwner","type":"address","indexed":true,"internalType":"address"},{"name":"newOwner","type":"address","indexed":true,"internalType":"address"}],"anonymous":false},{"type":"event","name":"Succeed","inputs":[{"name":"ctfId","type":"uint256","indexed":true,"internalType":"uint256"},{"name":"user","type":"address","indexed":true,"internalType":"address"}],"anonymous":false},{"type":"error","name":"OwnableInvalidOwner","inputs":[{"name":"owner","type":"address","internalType":"address"}]},{"type":"error","name":"OwnableUnauthorizedAccount","inputs":[{"name":"account","type":"address","internalType":"address"}]}],"bytecode":{"object":"0x608060405234801561001057600080fd5b50604051610c38380380610c3883398101604081905261002f916100be565b806001600160a01b03811661005e57604051631e4fbdf760e01b81526000600482015260240160405180910390fd5b6100678161006e565b50506100ee565b600080546001600160a01b038381166001600160a01b0319831681178455604051919092169283917f8be0079c531659141344cd1fd0a4f28419497f9722a3daafe3b4186f6b6457e09190a35050565b6000602082840312156100d057600080fd5b81516001600160a01b03811681146100e757600080fd5b9392505050565b610b3b806100fd6000396000f3fe608060405234801561001057600080fd5b50600436106100885760003560e01c8063b5b091421161005b578063b5b0914214610113578063bdf67f7e1461012a578063e2b0772b1461013d578063f2fde38b1461015d57600080fd5b80631d96d3db1461008d578063425a054c146100a2578063715018a6146100f05780638da5cb5b146100f8575b600080fd5b6100a061009b366004610675565b610170565b005b6100db6100b03660046106ee565b60009182526003602090815260408084206001600160a01b0393909316845291905290205460ff1690565b60405190151581526020015b60405180910390f35b6100a061025e565b6000546040516001600160a01b0390911681526020016100e7565b61011c60015481565b6040519081526020016100e7565b6100db610138366004610766565b610272565b61015061014b366004610817565b610359565b6040516100e79190610876565b6100a061016b3660046108db565b6104f4565b610178610537565b604080516080810182526001805480835260208084018881528486018890526001600160a01b038716606086015260009283526002909152939020825181559251919291908201906101ca9082610986565b50604082015160028201906101df9082610986565b5060609190910151600390910180546001600160a01b0319166001600160a01b039092169190911790556001546040517f9411d956af542e63f1c78f733b44b2fceeebda96ad91ca9d594efe5f73373ea39061023c908690610a45565b60405180910390a26001805490600061025483610a58565b9190505550505050565b610266610537565b6102706000610564565b565b600085815260026020526040808220600301549051633a94343960e21b815282916001600160a01b03169063ea50d0e4906102b7908990899089908990600401610a7f565b602060405180830381865afa1580156102d4573d6000803e3d6000fd5b505050506040513d601f19601f820116820180604052508101906102f89190610ae3565b9050801561034f576000878152600360209081526040808320338085529252808320805460ff1916600117905551909189917f2cd4f6a57bd43ee41a6c2a00da5c5e82de44fedb0147d263b317325e21c0369b9190a35b9695505050505050565b61038d604051806080016040528060008152602001606081526020016060815260200160006001600160a01b031681525090565b60026000838152602001908152602001600020604051806080016040529081600082015481526020016001820180546103c5906108fd565b80601f01602080910402602001604051908101604052809291908181526020018280546103f1906108fd565b801561043e5780601f106104135761010080835404028352916020019161043e565b820191906000526020600020905b81548152906001019060200180831161042157829003601f168201915b50505050508152602001600282018054610457906108fd565b80601f0160208091040260200160405190810160405280929190818152602001828054610483906108fd565b80156104d05780601f106104a5576101008083540402835291602001916104d0565b820191906000526020600020905b8154815290600101906020018083116104b357829003601f168201915b5050509183525050600391909101546001600160a01b031660209091015292915050565b6104fc610537565b6001600160a01b03811661052b57604051631e4fbdf760e01b8152600060048201526024015b60405180910390fd5b61053481610564565b50565b6000546001600160a01b031633146102705760405163118cdaa760e01b8152336004820152602401610522565b600080546001600160a01b038381166001600160a01b0319831681178455604051919092169283917f8be0079c531659141344cd1fd0a4f28419497f9722a3daafe3b4186f6b6457e09190a35050565b634e487b7160e01b600052604160045260246000fd5b600082601f8301126105db57600080fd5b813567ffffffffffffffff8111156105f5576105f56105b4565b604051601f8201601f19908116603f0116810167ffffffffffffffff81118282101715610624576106246105b4565b60405281815283820160200185101561063c57600080fd5b816020850160208301376000918101602001919091529392505050565b80356001600160a01b038116811461067057600080fd5b919050565b60008060006060848603121561068a57600080fd5b833567ffffffffffffffff8111156106a157600080fd5b6106ad868287016105ca565b935050602084013567ffffffffffffffff8111156106ca57600080fd5b6106d6868287016105ca565b9250506106e560408501610659565b90509250925092565b6000806040838503121561070157600080fd5b8235915061071160208401610659565b90509250929050565b60008083601f84011261072c57600080fd5b50813567ffffffffffffffff81111561074457600080fd5b6020830191508360208260051b850101111561075f57600080fd5b9250929050565b60008060008060006060868803121561077e57600080fd5b85359450602086013567ffffffffffffffff81111561079c57600080fd5b8601601f810188136107ad57600080fd5b803567ffffffffffffffff8111156107c457600080fd5b8860208284010111156107d657600080fd5b60209190910194509250604086013567ffffffffffffffff8111156107fa57600080fd5b6108068882890161071a565b969995985093965092949392505050565b60006020828403121561082957600080fd5b5035919050565b6000815180845260005b818110156108565760208185018101518683018201520161083a565b506000602082860101526020601f19601f83011685010191505092915050565b6020815281516020820152600060208301516080604084015261089c60a0840182610830565b90506040840151601f198483030160608501526108b98282610830565b606095909501516001600160a01b031660809490940193909352509192915050565b6000602082840312156108ed57600080fd5b6108f682610659565b9392505050565b600181811c9082168061091157607f821691505b60208210810361093157634e487b7160e01b600052602260045260246000fd5b50919050565b601f82111561098157806000526020600020601f840160051c8101602085101561095e5750805b601f840160051c820191505b8181101561097e576000815560010161096a565b50505b505050565b815167ffffffffffffffff8111156109a0576109a06105b4565b6109b4816109ae84546108fd565b84610937565b6020601f8211600181146109e857600083156109d05750848201515b600019600385901b1c1916600184901b17845561097e565b600084815260208120601f198516915b82811015610a1857878501518255602094850194600190920191016109f8565b5084821015610a365786840151600019600387901b60f8161c191681555b50505050600190811b01905550565b6020815260006108f66020830184610830565b600060018201610a7857634e487b7160e01b600052601160045260246000fd5b5060010190565b6040815283604082015283856060830137600060608583018101829052601f19601f8701168301838103820160208501529081018490526001600160fb1b03841115610aca57600080fd5b8360051b80866080840137016080019695505050505050565b600060208284031215610af557600080fd5b815180151581146108f657600080fdfea2646970667358221220e14aa843175e2a48a53e31b1d63fda6b1d03dfa9ab982d703c961445d957a09a64736f6c634300081a0033","linkReferences":{}},"methodIdentifiers":{"addCtf(string,string,address)":"1d96d3db","getCtfProblems(uint256)":"e2b0772b","getUserCompleted(uint256,address)":"425a054c","owner()":"8da5cb5b","problemId()":"b5b09142","renounceOwnership()":"715018a6","transferOwnership(address)":"f2fde38b","validateProof(uint256,bytes,bytes32[])":"bdf67f7e"},"id":23}