{"abi":[{"type":"constructor","inputs":[{"name":"initialOwner","type":"address","internalType":"address"}],"stateMutability":"nonpayable"},{"type":"function","name":"addCtf","inputs":[{"name":"_title","type":"string","internalType":"string"},{"name":"_description","type":"string","internalType":"string"},{"name":"_verifier","type":"address","internalType":"address"}],"outputs":[],"stateMutability":"nonpayable"},{"type":"function","name":"getCtfProblems","inputs":[{"name":"ctfId","type":"uint256","internalType":"uint256"}],"outputs":[{"name":"","type":"tuple","internalType":"struct CtfProblem","components":[{"name":"id","type":"uint256","internalType":"uint256"},{"name":"title","type":"string","internalType":"string"},{"name":"description","type":"string","internalType":"string"},{"name":"verifier","type":"address","internalType":"address"}]}],"stateMutability":"view"},{"type":"function","name":"getUserCompleted","inputs":[{"name":"ctfId","type":"uint256","internalType":"uint256"},{"name":"user","type":"address","internalType":"address"}],"outputs":[{"name":"","type":"bool","internalType":"bool"}],"stateMutability":"view"},{"type":"function","name":"owner","inputs":[],"outputs":[{"name":"","type":"address","internalType":"address"}],"stateMutability":"view"},{"type":"function","name":"problemId","inputs":[],"outputs":[{"name":"","type":"uint256","internalType":"uint256"}],"stateMutability":"view"},{"type":"function","name":"renounceOwnership","inputs":[],"outputs":[],"stateMutability":"nonpayable"},{"type":"function","name":"transferOwnership","inputs":[{"name":"newOwner","type":"address","internalType":"address"}],"outputs":[],"stateMutability":"nonpayable"},{"type":"event","name":"NewCtf","inputs":[{"name":"ctfId","type":"uint256","indexed":true,"internalType":"uint256"},{"name":"title","type":"string","indexed":false,"internalType":"string"}],"anonymous":false},{"type":"event","name":"OwnershipTransferred","inputs":[{"name":"previousOwner","type":"address","indexed":true,"internalType":"address"},{"name":"newOwner","type":"address","indexed":true,"internalType":"address"}],"anonymous":false},{"type":"event","name":"Succeed","inputs":[{"name":"ctfId","type":"uint256","indexed":true,"internalType":"uint256"},{"name":"user","type":"address","indexed":true,"internalType":"address"}],"anonymous":false},{"type":"error","name":"OwnableInvalidOwner","inputs":[{"name":"owner","type":"address","internalType":"address"}]},{"type":"error","name":"OwnableUnauthorizedAccount","inputs":[{"name":"account","type":"address","internalType":"address"}]}],"bytecode":{"object":"0x608060405234801561001057600080fd5b506040516109b03803806109b083398101604081905261002f916100be565b806001600160a01b03811661005e57604051631e4fbdf760e01b81526000600482015260240160405180910390fd5b6100678161006e565b50506100ee565b600080546001600160a01b038381166001600160a01b0319831681178455604051919092169283917f8be0079c531659141344cd1fd0a4f28419497f9722a3daafe3b4186f6b6457e09190a35050565b6000602082840312156100d057600080fd5b81516001600160a01b03811681146100e757600080fd5b9392505050565b6108b3806100fd6000396000f3fe608060405234801561001057600080fd5b506004361061007d5760003560e01c80638da5cb5b1161005b5780638da5cb5b146100ed578063b5b0914214610108578063e2b0772b1461011f578063f2fde38b1461013f57600080fd5b80631d96d3db14610082578063425a054c14610097578063715018a6146100e5575b600080fd5b610095610090366004610570565b610152565b005b6100d06100a53660046105e9565b60009182526003602090815260408084206001600160a01b0393909316845291905290205460ff1690565b60405190151581526020015b60405180910390f35b610095610240565b6000546040516001600160a01b0390911681526020016100dc565b61011160015481565b6040519081526020016100dc565b61013261012d366004610615565b610254565b6040516100dc9190610674565b61009561014d3660046106d9565b6103ef565b61015a610432565b604080516080810182526001805480835260208084018881528486018890526001600160a01b038716606086015260009283526002909152939020825181559251919291908201906101ac9082610784565b50604082015160028201906101c19082610784565b5060609190910151600390910180546001600160a01b0319166001600160a01b039092169190911790556001546040517f9411d956af542e63f1c78f733b44b2fceeebda96ad91ca9d594efe5f73373ea39061021e908690610843565b60405180910390a26001805490600061023683610856565b9190505550505050565b610248610432565b610252600061045f565b565b610288604051806080016040528060008152602001606081526020016060815260200160006001600160a01b031681525090565b60026000838152602001908152602001600020604051806080016040529081600082015481526020016001820180546102c0906106fb565b80601f01602080910402602001604051908101604052809291908181526020018280546102ec906106fb565b80156103395780601f1061030e57610100808354040283529160200191610339565b820191906000526020600020905b81548152906001019060200180831161031c57829003601f168201915b50505050508152602001600282018054610352906106fb565b80601f016020809104026020016040519081016040528092919081815260200182805461037e906106fb565b80156103cb5780601f106103a0576101008083540402835291602001916103cb565b820191906000526020600020905b8154815290600101906020018083116103ae57829003601f168201915b5050509183525050600391909101546001600160a01b031660209091015292915050565b6103f7610432565b6001600160a01b03811661042657604051631e4fbdf760e01b8152600060048201526024015b60405180910390fd5b61042f8161045f565b50565b6000546001600160a01b031633146102525760405163118cdaa760e01b815233600482015260240161041d565b600080546001600160a01b038381166001600160a01b0319831681178455604051919092169283917f8be0079c531659141344cd1fd0a4f28419497f9722a3daafe3b4186f6b6457e09190a35050565b634e487b7160e01b600052604160045260246000fd5b600082601f8301126104d657600080fd5b813567ffffffffffffffff8111156104f0576104f06104af565b604051601f8201601f19908116603f0116810167ffffffffffffffff8111828210171561051f5761051f6104af565b60405281815283820160200185101561053757600080fd5b816020850160208301376000918101602001919091529392505050565b80356001600160a01b038116811461056b57600080fd5b919050565b60008060006060848603121561058557600080fd5b833567ffffffffffffffff81111561059c57600080fd5b6105a8868287016104c5565b935050602084013567ffffffffffffffff8111156105c557600080fd5b6105d1868287016104c5565b9250506105e060408501610554565b90509250925092565b600080604083850312156105fc57600080fd5b8235915061060c60208401610554565b90509250929050565b60006020828403121561062757600080fd5b5035919050565b6000815180845260005b8181101561065457602081850181015186830182015201610638565b506000602082860101526020601f19601f83011685010191505092915050565b6020815281516020820152600060208301516080604084015261069a60a084018261062e565b90506040840151601f198483030160608501526106b7828261062e565b606095909501516001600160a01b031660809490940193909352509192915050565b6000602082840312156106eb57600080fd5b6106f482610554565b9392505050565b600181811c9082168061070f57607f821691505b60208210810361072f57634e487b7160e01b600052602260045260246000fd5b50919050565b601f82111561077f57806000526020600020601f840160051c8101602085101561075c5750805b601f840160051c820191505b8181101561077c5760008155600101610768565b50505b505050565b815167ffffffffffffffff81111561079e5761079e6104af565b6107b2816107ac84546106fb565b84610735565b6020601f8211600181146107e657600083156107ce5750848201515b600019600385901b1c1916600184901b17845561077c565b600084815260208120601f198516915b8281101561081657878501518255602094850194600190920191016107f6565b50848210156108345786840151600019600387901b60f8161c191681555b50505050600190811b01905550565b6020815260006106f4602083018461062e565b60006001820161087657634e487b7160e01b600052601160045260246000fd5b506001019056fea2646970667358221220382b802ce8ce35ff4aa9317ff87d202d13f4adb876eb78542dc26621409c17dc64736f6c634300081a0033","linkReferences":{}},"methodIdentifiers":{"addCtf(string,string,address)":"1d96d3db","getCtfProblems(uint256)":"e2b0772b","getUserCompleted(uint256,address)":"425a054c","owner()":"8da5cb5b","problemId()":"b5b09142","renounceOwnership()":"715018a6","transferOwnership(address)":"f2fde38b"},"id":23}